:10200000F3310000214721018000CD362021FFFF60
:102010003911CB21AFED52DA3020010E02ED42DA58
:102020003020010F00094D44EBCD3620FBCDB82008
:10203000E5F3E17618FE5D54E5C50E01CD9920DA91
:10204000592021060019EBC109AF2B772B77EB73D1
:10205000237223CD8A20E1C9E1E1E12EFF2600228F
:102060004521C36920E1E1E1E121000037C9E1E157
:10207000E1C9772377237723772377237723772380
:102080007723772377237723772377237723772380
:102090007723C97E6F079F67C979E6F8201579E62F
:1020A000072810AFCD86202B2B2B36FE2B2B712132
:1020B0000000C921010037C9211F007DD304DB04C2
:1020C0006F2600CD94203B7DE16FE52120007DD37C
:1020D0000421000039E5DB046F2600CD9420D17D7A
:1020E000123BE12E00E52155007DD304210000E5DF
:1020F000C3F620E123E5E1E57DD6647C173F1FDED2
:1021000080DAF320C121010039E5DB046F2600CD20
:102110009420D17D122100003934210000E5C32430
:1021200021E123E5E1E57DD6FF7C173F1FDE80DA64
:102130002121C1C3E620C33621C1C900CB214721DB
:10214000000040210100000000000000000000002D
:10215000000000000000000000000000000000007F
:10216000000000000000000000000000000000006F
:10217000000000000000000000000000000000005F
:10218000000000000000000000000000000000004F
:10219000000000000000000000000000000000003F
:1021A000000000000000000000000000000000002F
:1021B000000000000000000000000000000000001F
:0B21C000000000000000000000000014
:00000001FF
